S01200004E616D65426C6F636B732E7372656333
S113000019C020C01FC01EC01DC01CC01BC01AC008
S113001019C018C017C016C015C014C013C012C030
S113002011C010C00FC00EC00DC00CC00BC00AC060
S113003009C008C011241FBECFEFD2E0DEBFCDBF80
S113004002D002C1DDCF21B141B18FEF90E06C014C
S113005002C0CC0CDD1C2A95E2F79601242B21B9B1
S113006025B145B1BC0102C0660F771F2A95E2F79E
S11300709B01242B25B939B129B102C0880F991FDE
S11300803A95E2F7822B89B983B183B183B987B1F9
S113009087B187B98BB18BB18BB96EE770E046E657
S11300A050E002EE10E021E030E0CCEDD0E0ADEE27
S11300B0B0E00F2EF7E6AF2EB12CF02D80B180B159
S11300C080B984B184B184B988B188B188B980B168
S11300D080B180B984B184B184B988B188B188B958
S11300E080B1F0B0FB0102C0EE0FFF1F8A95E2F76A
S11300F0CF018F2980B984B1F4B06A0102C0CC0C5D
S1130100DD1C8A95E2F7C6018F2984B988B188B1CC
S113011088B98FE996E8E1E081509040E040E1F74A
S113012000C0000080B180B180B984B184B184B9C9
S113013088B188B188B980B1F0B0680102C0CC0C34
S1130140DD1C8A95E2F7C6018F2980B984B1F4B029
S1130150FA0102C0EE0FFF1F8A95E2F7CF018F2943
S113016084B988B1F8B0690102C0CC0CDD1C8A9551
S1130170E2F7C6018F2988B98FE996E8E1E081505A
S11301809040E040E1F700C0000080B180B180B948
S113019084B184B184B988B188B188B980B1F0B030
S11301A06B0102C0CC0CDD1C8A95E2F7C6018F29D5
S11301B080B984B1F4B0FE0102C0EE0FFF1F8A952E
S11301C0E2F7CF018F2984B988B188B188B9FFE9F2
S11301D086E891E0F15080409040E1F700C00000D3
S11301E080B180B180B984B184B184B988B188B157
S11301F088B980B1F0B0FD0102C0EE0FFF1F8A95EF
S1130200E2F7CF018F2980B984B1F4B0650102C04F
S1130210CC0CDD1C8A95E2F7C6018F2984B988B11C
S1130220F8B0F90102C0EE0FFF1F8A95E2F7CF0183
S11302308F2988B9FFE986E891E0F1508040904029
S10F0240E1F700C000003ACFF894FFCFB3
S9030000FC
