S015000053746F706C69676874546573742E73726563B1
S113000019C028C027C026C025C024C023C022C0D0
S113001021C020C01FC01EC01DC01CC01BC01AC0F0
S113002019C018C017C016C015C014C013C012C020
S113003011C010C011241FBECFEFD2E0DEBFCDBF70
S113004021E0A0E0B1E001C01D92A330B207E1F7C6
S113005046D0C3C0D5CF32B122B18FEF90E002C0F9
S1130060880F991F3A95E2F7822B82B9089582B1DD
S113007082B112B8089532B122B18EEF90E002C07D
S1130080880F991F3A95E2F7822382B9089532B115
S113009022B18DEF90E002C0880F991F3A95E2F7E4
S11300A0822382B9089532B122B18BEF90E002C06D
S11300B0880F991F3A95E2F7822382B9089588B18F
S11300C081708093020188B18695817080930101CB
S11300D088B182FB882780F9809300010895CF932B
S11300E0DF9321B141B18FEF90E0BC0102C0660FF4
S11300F0771F2A95E2F79B01242B21B925B145B13D
S1130100BC0102C0660F771F2A95E2F79B01242BDE
S113011025B929B129B119B823B123B113B827B12D
S113012027B117B83BB12BB102C0880F991F3A957C
S1130130E2F7822B8BB986B186B116B8C1E0D0E064
S113014087EA91E60197F1F700C00000B8DF20913B
S1130150020130910101422F432380910001942F29
S1130160982371F078DF36B126B183E090E002C0C5
S1130170880F991F3A95E2F7822B86B97CDF28C055
S11301809C2F81119D2F50E0692F70E04623572347
S1130190452B71F060DF36B126B181E090E002C0FA
S11301A0880F991F3A95E2F7822B86B970DF10C049
S11301B08C2F31118D2F9823892F90E030E08223EA
S11301C09323892B19F047DF6EDF02C050DFB8CFCD
S11101D080E090E0DF91CF910895F894FFCF86
S9030000FC
